{
  "address": "0xfB12F7170FF298CDed84C793dAb9aBBEcc01E798",
  "abi": [
    {
      "inputs": [],
      "name": "ArrayLengthMismatch",
      "type": "error"
    },
    {
      "anonymous": false,
      "inputs": [
        {
          "indexed": true,
          "internalType": "address",
          "name": "recipient",
          "type": "address"
        },
        {
          "indexed": false,
          "internalType": "uint256",
          "name": "amount",
          "type": "uint256"
        }
      ],
      "name": "FailedTransfer",
      "type": "event"
    },
    {
      "inputs": [
        {
          "internalType": "address[]",
          "name": "recipients",
          "type": "address[]"
        },
        {
          "internalType": "uint256[]",
          "name": "amounts",
          "type": "uint256[]"
        }
      ],
      "name": "send",
      "outputs": [],
      "stateMutability": "payable",
      "type": "function"
    }
  ],
  "transactionHash": "0x49e9734c7780f4b0c053960cbe09fe313cc9afd5aa99ae37579974e428c41d06",
  "args": [],
  "numDeployments": 1,
  "solcInputHash": "a9cabcbc5879c375c6188270fe1b25a8",
  "bytecode": "0x608060405234801561000f575f80fd5b5061036e8061001d5f395ff3fe60806040526004361061001d575f3560e01c8063a645ff5f14610021575b5f80fd5b61003461002f36600461025e565b610036565b005b82818114610070576040517fa24a13a600000000000000000000000000000000000000000000000000000000815260040160405180910390fd5b5f805b828110156101db575f87878381811061008e5761008e6102c5565b90506020020160208101906100a391906102d9565b73ffffffffffffffffffffffffffffffffffffffff168686848181106100cb576100cb6102c5565b905060200201356040515f6040518083038185875af1925050503d805f811461010f576040519150601f19603f3d011682016040523d82523d5f602084013e610114565b606091505b50509050806101d25785858381811061012f5761012f6102c5565b90506020020135836101419190610313565b9250878783818110610155576101556102c5565b905060200201602081019061016a91906102d9565b73ffffffffffffffffffffffffffffffffffffffff167f3506b32cea6b36a739c1c2a71a9e1b3d6222104389c07219059fa6eb6d2e05638787858181106101b3576101b36102c5565b905060200201356040516101c991815260200190565b60405180910390a25b50600101610073565b50801561020e57604051339082156108fc029083905f818181858888f1935050505015801561020c573d5f803e3d5ffd5b505b505050505050565b5f8083601f840112610226575f80fd5b50813567ffffffffffffffff81111561023d575f80fd5b6020830191508360208260051b8501011115610257575f80fd5b9250929050565b5f805f8060408587031215610271575f80fd5b843567ffffffffffffffff80821115610288575f80fd5b61029488838901610216565b909650945060208701359150808211156102ac575f80fd5b506102b987828801610216565b95989497509550505050565b634e487b7160e01b5f52603260045260245ffd5b5f602082840312156102e9575f80fd5b813573ffffffffffffffffffffffffffffffffffffffff8116811461030c575f80fd5b9392505050565b8082018082111561033257634e487b7160e01b5f52601160045260245ffd5b9291505056fea2646970667358221220c3a34d4c77d4b39b5b465c836325e24b8279978f3d75b11cdc7a9372bbae4d8d64736f6c63430008140033",
  "devdoc": {
    "author": "jalil.eth & backseats.eth",
    "errors": {
      "ArrayLengthMismatch()": [
        {
          "details": "Error for bad input."
        }
      ]
    },
    "events": {
      "FailedTransfer(address,uint256)": {
        "details": "Inform DAPPs of a failed transfer recipient."
      }
    },
    "kind": "dev",
    "methods": {
      "send(address[],uint256[])": {
        "params": {
          "amounts": "How much wei to send to each address.",
          "recipients": "The addresses that should receive funds."
        }
      }
    },
    "title": "Batch send Ether to multiple addresses.",
    "version": 1
  },
  "userdoc": {
    "kind": "user",
    "methods": {
      "send(address[],uint256[])": {
        "notice": "Send ether to many addresses."
      }
    },
    "version": 1
  },
  "storageLayout": {
    "storage": [],
    "types": null
  }
}